:020000040800F2
:10000000300F002035020008631400082114000896
:10001000611400082B04000881160008000000008D
:10002000000000000000000000000000D5150008DE
:10003000B50400080000000065140008D71500088A
:100040004F0200084F0200084F0200084F0200084C
:100050004F0200084F0200084F0200084F0200083C
:100060004F0200084F0200084F0200084F0200082C
:100070004F0200084F0200084F0200084F0200081C
:100080004F0200084F0200084F0200080000000065
:100090000000000000000000000000004F02000807
:1000A0004F0200084F0200084F0200084F020008EC
:1000B0004F0200084F0200084F0200084F020008DC
:1000C0004F0200084F0200084F0200084F020008CC
:1000D0004F0200084F0200084F0200080000000015
:1000E0004F0200084F0200084F0200080000000005
:1000F0000000000000000000000000004F020008A7
:10010000000000004F0200084F0200084F020008E4
:1001100000000000000000000000000000000000DF
:100120004F0200084F0200082D0400084F0200088B
:100130004F02000800000000000000000000000066
:100140000000000000000000000000004F02000856
:100150004F0200084F0200084F0200084F0200083B
:100160004F0200084F0200080000000000000000DD
:10017000000000000000000000000000000000007F
:10018000000000004F020008000000000000000016
:100190004F02000800F002F800F03CF80AA090E8D6
:1001A000000C82448344AAF10107DA4501D100F032
:1001B00031F8AFF2090EBAE80F0013F0010F18BFC3
:1001C000FB1A43F001031847A4150000C4150000F2
:1001D000103A24BF78C878C1FAD8520724BF30C873
:1001E00030C144BF04680C60704700000023002445
:1001F00000250026103A28BF78C1FBD8520728BF37
:1002000030C148BF0B6070471FB501F09DFA1FBD9C
:1002100010B510BD00F0CFF81146FFF7F5FF01F063
:1002200041FA00F0EDF803B4FFF7F2FF03BC00F071
:10023000F5F800000948804709480047FEE7FEE757
:10024000FEE7FEE7FEE7FEE7FEE7FEE7FEE7FEE786
:1002500004480549054A064B70470000711600081E
:100260009501000830090020300F0020300B0020DD
:10027000300B002053EA020C00F069802DE9F04BAE
:100280004FF00006002B1FBFB3FA83F503FA05F405
:1002900024FA05F65E4012BF1643B2FA82F502FA5E
:1002A00005F4C5F120051EBF22FA05FC44EA0C0442
:1002B000203556EA044C4FEA144418BF641C4FF032
:1002C00000084FF00009904271EB030C39D300296C
:1002D00019BFB1FA81F701FA07F6B0FA80F700FA10
:1002E00007F6C7F120071EBF20FA07FC46EA0C06F6
:1002F0002037B6FBF4FCA7EB0507103F07F01F0BF8
:10030000CBF120060CFA0BFB2CFA06F644BFB346E1
:100310000026202FA4BF5E464FF0000B5BEA060CC0
:1003200008BF4FF0010B19EB0B09ABFB027C48EB4C
:100330000608C01B06FB02CC0BFB03CC71EB0C01C7
:10034000C1E70B46024641464846BDE8F08B13B56F
:100350004FF000004FF00001AFF30080BDE81C40FB
:1003600070474FF0000200B5134694469646203978
:1003700022BFA0E80C50A0E80C50B1F12001BFF45E
:10038000F7AF090728BFA0E80C5048BF0CC05DF8C4
:1003900004EB890028BF40F8042B08BF704748BF12
:1003A00020F8022B11F0804F18BF00F8012B704786
:1003B000704770477047754600F02CF8AE46050050
:1003C0006946534620F00700854618B020B5FFF770
:1003D0003FFFBDE820404FF000064FF000074FF010
:1003E00000084FF0000B21F00701AC46ACE8C00953
:1003F000ACE8C009ACE8C009ACE8C0098D4670475C
:1004000010B50446AFF300802046BDE81040FFF76A
:100410000ABF000000487047CC080020014918209E
:10042000ABBEFEE7260002007047FEE7014800F081
:1004300045B800006C08002001681823CAB2103AC1
:10044000B2FBF3F2054B6FF30901032A9B5CC36512
:1004500000D9091D81650846704700005217000841
:1004600010B5014600208B698A6A4FF0C07453B101
:10047000B3F5005F15D072B1012A0CD0022A0AD060
:10048000032A09D104E01AB1012A06D0022A03D1B5
:10049000C96AC90100D5012010BDC96AA142FAD0BC
:1004A00010BD002AF7D0012AF2D0022AF3D0032A85
:1004B000F3D010BD704772B6FEE700002DE9F84397
:1004C00004464FF00009CDF8009063484FF41651F0
:1004D000A56D0068B0FBF1F72E6894F85C10082059
:1004E00000FA01F131420FD021680A6852070BD59A
:1004F0000A6822F004020A6094F85C108840A86040
:10050000606D40F00100606594F85C104FF00108E8
:1005100008FA01F0304208D021684969090604D57B
:10052000A860606D40F00200606594F85C100420E3
:100530008840304208D021680968890704D5A8603E
:10054000606D40F00400606594F85C1010208840F5
:10055000304218D021680968090714D5A8602068BE
:100560000168490304D50068000308D5A16C07E0C1
:100570000168C90503D4016821F008010160216CFC
:1005800009B12046884794F85C102020884030420A
:1005900031D021680968C9062DD5A86094F83500C6
:1005A00005282068016806D0490347D50068000384
:1005B0001DD4616C1CE021F01601016020684169C6
:1005C00021F080014161206C08B9A06C20B1206845
:1005D000016821F00801016094F85C103F20884018
:1005E000A86084F8358084F83490216D1FE0E16BB9
:1005F00009B120468847606D00282BD0606DC00788
:1006000014D0052084F835002068016821F001012C
:1006100001600098401C0090B84203D82068006830
:10062000C007F6D184F8358084F83490E16C002955
:1006300010D001B02046BDE8F04308470168C90565
:10064000D5D4016821F01001016084F8358084F868
:100650003490CCE7BDE8F883100000202DE9F0418C
:10066000044600F05BF906465CB1022084F83500D0
:10067000002584F834502068016821F001010160F0
:100680000DE00120BDE8F08100F048F9801B05284D
:1006900005D920206065032084F83500F2E7206842
:1006A0000068C007F0D12268116820480140D4E9F1
:1006B00001031843D4E903363343184363691843ED
:1006C000A3691843E3691843236A18430843616A1E
:1006D000042903D1D4E90B1319430843106020689F
:1006E0004069666A20F0070130460E43012704285E
:1006F0000CD1A06A0643E06A40B12046FFF7B0FE85
:1007000020B14020606584F83570BAE72068466102
:100710002046FFF791FE94F85C203F2191408160D4
:10072000656584F835700020ACE700003F8010F06C
:100730002DE9F84FDFF8B8A10022012403254FF07E
:100740000F090AF1040BAAF1040E00BF0B6804FAAA
:1007500002F63340B34273D10F7907F00307012F3C
:1007600001D0022F16D187684FEA420805FA08FC2B
:1007700027EA0C07D1F80CC00CFA08FC4CEA070C6D
:10078000C0F808C04768B7430E79C6F30016964014
:100790003E4346600E79F643B6070DD0C768560053
:1007A00005FA06FC27EA0C07D1F808C00CFA06FC8B
:1007B0004CEA070CC0F80CC00E7906F00306022EB6
:1007C00010D1D60800EB8608D8F8206057074FEA0A
:1007D000D76C09FA0CF7BE430F6907FA0CF73743D9
:1007E000C8F8207006684FEA420C05FA0CF7BE43C1
:1007F0000F7907F0030707FA0CF7374307604E68D5
:1008000016F4403F6DD03B4E376847F48047376061
:10081000366822F0030706F480460096364E07EB52
:10082000060CDCF8086897073F0F09FA07F826EA74
:100830000806DFF8C880404503D14FF000081EE0ED
:100840004FE0DFF8BC80404502D14FF0010816E0D0
:10085000DFF8B080404502D14FF002080FE0DFF82A
:10086000A880404502D14FF0030808E0DFF89C80E3
:10087000404502D14FF0040801E04FF0070808FAA4
:1008800007F848EA0608CCF80888DAF80060574606
:10089000D1F804C09E435FEACC2C00D51E433E60D5
:1008A000DBF800605F46D1F804C09E435FEA8C2C01
:1008B00000D51E433E60DEF800607746D1F804C0E4
:1008C0009E435FEA8C3C00D51E433E60084F083FC4
:1008D0003E68D1F804C09E435FEACC3C00D51E437D
:1008E0003E60521C102AFFF431AFBDE8F88F0000C3
:1008F000083C014044380240003001400000024002
:100900000004024000080240000C024000100240B7
:100910000069084000D0012070470000014880684D
:1009200070470000040000200248816802781144EA
:1009300081607047040000200B4810B5016841F445
:1009400000710160016841F480610160016841F457
:1009500080710160032000F06FF80F2000F006F8AE
:1009600000F024F8002010BD003C024070B50D4D91
:1009700004464FF47A712878B1FBF0F00A4909680F
:10098000B1FBF0F000F038FD48B9102C07D200227E
:100990002146501E00F030F800206C6070BD012030
:1009A00070BD000004000020100000200A4808B5B7
:1009B000016841F480410160006800F480400090CB
:1009C0000548001F016841F080510160006800F097
:1009D0008050009008BD000044380240002809DB28
:1009E00000F01F02012191404009800000F1E02049
:1009F000C0F8001170470000F0B40E4B1B680C46A5
:100A0000C3F30223C3F10705042D00D90425191DE2
:100A1000072901D2002300E0DB1E012606FA05F1BA
:100A2000491E214099409E40761E16403143F0BC3D
:100A300000F027BE0CED00E0064900F00702086850
:100A40004FF6FF03184040EA0220034A10430860B3
:100A5000704700000CED00E00000FA052DE9F047BA
:100A60000E46050065D0DFF81481D8F80000F7B213
:100A700000F00700B04207D288F80070D8F80000F4
:100A800000F00700B04254D128683D4C810712D5D0
:100A9000400703D5206840F4E05020602878000724
:100AA00003D5206840F4604020602068A96820F0E9
:100AB000F000084320602878C0072DD030496868CE
:100AC0000839012812D0022813D0032811D0096850
:100AD000890700292DDA216821F0030101432160F3
:100AE000FFF71CFF814641F2883A0EE0096889034E
:100AF000EFE709688901ECE7FFF710FFA0EB0901B8
:100B0000514502D90320BDE8F0872068696800F0EC
:100B10000C00B0EB810FEFD1D8F80010404601F087
:100B20000701B14207D90770006800F00700B04222
:100B300001D00120E7E72878400705D52068E9685B
:100B400020F4E050084320602878000706D520688C
:100B5000296920F4604040EAC100206000F018F8E4
:100B60002168084AC1F30311515CC8400649086076
:100B700006480068FFF7FAFE0020C4E7003C024088
:100B8000083802405A170008100000200800002012
:100B9000154810B5006810F00C02144813D0144921
:100BA000042A0FD0082A0ED10F4C241F2268236874
:100BB00002F03F025B0207D52068C0F38810A0FB5B
:100BC000010106E0084610BD2168C1F38811A1FBB0
:100BD00000010023FFF74EFB2168C1F30141491CCE
:100BE0004900B0FBF1F010BD083802400024F400C9
:100BF00040787D012DE9F84F04006ED02078DFF8B1
:100C00004C93C007A9F104054AD009F1040001681A
:100C1000C1F38101012908D00068C0F381000228D6
:100C20000AD1D9F80000400206D52868800337D5DC
:100C300060680028E1D033E06068B0F5803F10D0F4
:100C4000B0F5A02F286810D020F4803028602868E4
:100C500020F4802028606068A8B1FFF75FFE064698
:100C60000DE0286840F48030F4E740F480202860EC
:100C7000F7E700BFFFF752FE801B642873D828688F
:100C80008003F7D50CE0FFF749FE064605E000BFFC
:100C9000FFF744FE801B6428F0D828688003F7D44F
:100CA0002078DFF8AC8280074FF0000A3ED5A748D5
:100CB000001D016811F00C0F08D00068C0F381001E
:100CC00002280BD1D9F80000400207D42868800719
:100CD00016D5E068012800D112E033E1E068B8B130
:100CE0000120C8F80000FFF719FE064605E000BF26
:100CF000FFF714FE801B0228C0D828688007F7D5AC
:100D00002868216920F0F80040EAC10028600DE061
:100D1000C8F800A0FFF702FE064604E0FFF7FEFD5C
:100D2000801B02281FD828688007F7D42078000786
:100D300022D5864F87486169703771B10121016002
:100D4000FFF7ECFD064604E0FFF7E8FD801B0228F4
:100D500009D838688007F7D50EE0C0F800A0FFF783
:100D6000DDFD064605E082E0FFF7D8FD801B022886
:100D70007DD838688007F7D42078400768D5DFF839
:100D8000CCB100270BF13C0BDBF80000C0000BD40A
:100D9000DBF8001041F08051CBF80010DBF80000C8
:100DA000012700F0805000906B4E3068C00510D4D1
:100DB000306840F480703060FFF7B0FD009005E0CF
:100DC000FFF7ACFD0099401A022850D83068C005E2
:100DD000F6D55E4EA0686C3601280FD00528306825
:100DE00010D020F001003060306820F00400306046
:100DF000A068B8B1FFF792FD00900FE0306840F0B6
:100E00000100F4E740F004003060F7E7FFF786FDEB
:100E10000099411A41F28830814266D830688007D3
:100E2000F4D50EE0FFF77AFD009007E0FFF776FDBE
:100E30000099411A41F28830814256D830688007C3
:100E4000F4D42FB1DBF8001021F08051CBF8001062
:100E5000A069C8B33D49091D0968C1F38101022990
:100E60004AD00228504607D0C8F8600000E03CE0B5
:100E7000FFF754FD04463BE04746C8F86000FFF723
:100E80004DFD064605E000BFFFF748FD801B022828
:100E90002BD828688001F7D4D4E907010843A16A58
:100EA0002E4A490802EB0141626A41EA8211084375
:100EB00094F82C1040EA0161C9F80010012038664E
:100EC000FFF72CFD044606E03EE000BFFFF726FDDD
:100ED000001B022809D828688001F7D534E000BF3C
:100EE000FFF71CFD001B022802D90320BDE8F88F84
:100EF00028688001F4D427E00128F7D0D9F8000051
:100F0000E26900F4800191421CD1226A00F03F01A5
:100F1000914217D147F6C071626A0140B1EB821F5E
:100F200010D1A26A4FF0FF3300F4403103EB5202BC
:100F3000B1EB024F06D194F82C1000F07060B0EBCA
:100F4000016F01D00120D1E70020CFE70438024033
:100F500000004742800E4742007000400000FFFF43
:100F600070B5040009D0606A002540B12561656153
:100F7000A56294F8510040B10CE0012070BD60689A
:100F8000B0F5827FF4D0E561F2E784F85050204656
:100F900000F044F8022084F851002068016821F034
:100FA00040010160A088218900F4827001F40441AD
:100FB0000843A18901F400610843217C01F002018A
:100FC0000843217D01F001010843218B01F40071E8
:100FD0000843217F01F03801084394F8201001F004
:100FE00080010843218D01F4005108432168086005
:100FF000A069042101EA104094F8241001F01001C6
:101000000843216848602068C16921F40061C1611A
:101010006565012084F85100002070BD70B586B070
:10102000064614216846FFF79CF91F49306888423C
:1010300038D11E480025016841F4805101600068E4
:1010400000F48050059019481438016841F00101FE
:1010500001600068694600F001000590E020009002
:101060000220CDE9010503200390052004901048DB
:10107000FFF75EFB104C0F4820604FF0C060C4E9E2
:1010800001054FF48060C4E903506561A561E56125
:10109000256220466562FFF7E1FA08B1FFF70BFA17
:1010A000F464A66306B070BD0030014044380240CD
:1010B00000000240406402406C0800202DE9F84F17
:1010C000044640680025984616460F464FF0040B2C
:1010D000B0F5827F01D1A06888B194F85000012852
:1010E00018D0012084F85000FFF718FC814694F8CE
:1010F00051004FF0000A01280ED0022582E084F84A
:1011000051B013460A462046CDF8008000F083F81F
:10111000BDE8F88F0220FBE7002F72D0002E70D0C0
:1011200084F851B0C4F854A0A763A687E687C4F832
:1011300030A0A4F834A0A4F836A0C4F840A0C4F8A5
:1011400044A0A068B0F5004F09D12068016821F0E3
:10115000400101602068016821F48041016020683D
:101160000168490603D4016841F040010160E0686C
:10117000D8B139E020688168C90709D0007BA16B2C
:101180000870A06B401CA063E08F401EE0870CE05D
:10119000FFF7C4FBA0EB0901414503D3B8F1FF3FC2
:1011A00003D036E0B8F1000F33D0E08F0028E1D152
:1011B0001DE020688168C90709D0C068A16B08805C
:1011C000A06B801CA063E08F401EE0870CE0FFF75F
:1011D000A5FBA0EB0901414503D3B8F1FF3F03D0C4
:1011E00017E0B8F1000F14D0E08F0028E1D14A4693
:1011F0004146204600F037F908B120206065606D57
:1012000000B10125012084F8510084F850A028463F
:101210007EE70325F6E72DE9F84F044690F85000E5
:1012200000270A9E1D4692468B464FF00109012871
:101230000ED0012084F85000FFF770FB804694F830
:101240005100616801280CD0B1F5827F07D102E01E
:101250000220BDE8F88FA16809B9042801D002274F
:10126000C2E0BBF1000F27D0BAF1000F24D01DB3AC
:1012700094F85100042802D0052084F85100002081
:101280006065C4F838A0E587A587C4F830B0E58666
:10129000A5862064606420680168490603D401685B
:1012A00041F040010160E068B0F5006F606805D072
:1012B000E8B3012D46D07FE0012795E008B1012D6C
:1012C00039D1206B21680088C860206B801C2063A6
:1012D000E08E401EE0862EE02068816889070FD5E9
:1012E000E18E69B1B9F1010F0AD1216B0988C160A2
:1012F000206B801C2063E08E401EE0864FF00009CA
:1013000020688168C9070CD0E18F51B1C068A16B1A
:101310000880A06B801CA063E08F401EE0874FF028
:101320000109FFF7FBFAA0EB0800B04200E009E07A
:1013300001D3701C50D1E08E0028CDD1E08F002861
:10134000CAD13FE0206B216800780873206B401CF5
:101350002063E08E401EE0862EE0206881688907C9
:101360000FD5E18E69B1B9F1010F0AD1216B09786E
:101370000173206B401C2063E08E401EE0864FF01E
:10138000000920688168C9070CD0E18F51B1C0689D
:10139000A16B0870A06B401CA063E08F401EE0872B
:1013A0004FF00109FFF7BAFAA0EB0800B04202D3F0
:1013B000701C01D010E07EB1E08E0028CDD1E08F0E
:1013C0000028CAD142463146204600F07BF828B1B9
:1013D00001272020606507E0032705E0A06818B911
:1013E0002068C16880680090012084F851000020C6
:1013F00084F8500038462CE710B5401EB0F1807FCD
:1014000001D3012010BD4FF0E02460610F2160176F
:1014100000F037F90020A06107202061002010BDF6
:10142000FEE700000D4810B50B4901600021416046
:101430008160C1604FF400720161C0E90512016270
:10144000416281620A21C162FFF78AFD002801D052
:1014500072B6FEE710BD0000003001401408002005
:10146000FEE7FEE77047F8B5044640684FF4827324
:10147000984221D1A0684FF48065B0F5004F01D0AB
:10148000A8420AD12068066826F040060660606817
:10149000984211D1A068A8420ED000920B460022BB
:1014A0008021204600F03AF8002804D0606D40F01A
:1014B000200060650320F8BD00920B460022012148
:1014C000EFE7000038B504461248134B0068B0FB44
:1014D000F3F04FF47A73584300906068B0F5827F60
:1014E0000DD10B46009200228021204600F016F814
:1014F00070B1606D40F020006065032038BD009839
:1015000030B1401E009020688068C0430006F6D5C8
:10151000002038BD1000002000366E012DE9F84390
:101520001E46914688460446089DFFF7F7F9401B82
:10153000351AFFF7F3F9074625480068C0F3CB30AA
:10154000684338E0701C37D0FFF7E8F9C01BA842A9
:1015500003D215B1009860B32CE02068416821F0F7
:10156000E00141606068B0F5827F0BD1A068B0F502
:10157000004F02D0B0F5806F04D12068016821F0DF
:1015800040010160A06AB0F5005F09D120680168E0
:1015900021F4005101602068016841F400510160AC
:1015A000012084F85100002084F850000320BDE899
:1015B000F8830025401E00902068816838EA010009
:1015C00004D000214945BDD10020F0E70121F9E711
:1015D000100000207047FFF7A7B9000030B593B0A6
:1015E00030216846FEF7BDFE14210CA8FEF7B9FEB7
:1015F0001D480024016841F080510160006800F03E
:10160000805011901948016821F4404141F4004193
:1016100001600068022500F4404011900120039011
:1016200010200490009506950820CDE9074054202D
:10163000CDE9090504200B906846FFF7DBFA08B1F5
:1016400072B6FEE70F20CDE90C054FF48050CDE9CE
:101650000E4002210CA81094FFF700FA002801D0D8
:1016600072B6FEE713B030BD403802400070004053
:101670000248016841F470010160704788ED00E0A4
:10168000FEE70907090E002804DB00F1E02080F8DE
:101690000014704700F00F0000F1E02080F8141DE6
:1016A0007047000086B0FFF747F9FFF797FF142156
:1016B0006846FEF756FE204C0020216841F00101EB
:1016C0002160216801F001010591216841F00201CA
:1016D00021602168194D01F0020105910221CDE937
:1016E0000010029069462846FFF722F8206840F46F
:1016F000800020602068002200F4800000901146E5
:101700003A20FFF779F93A20FFF768F9FFF78AFEE8
:101710000B4C4FF47A7602212846FFF7F9F800289F
:10172000F9D108493346142201F50060FFF7C6FCE1
:101730002068401C2060EEE7303802400004024080
:1017400000000020140000204FF04070E1EE100A6D
:10175000704700061016000610160000000000007A
:101760000000010203040607080900008C170008A6
:101770000000002014000000D0010008A01700089D
:10178000140000201C0F0000EC0100080000000005
:101790000100000010000000000000000024F40020
:040000050800019559
:00000001FF
