:020000040800F2
:10000000980700203502000895120008CF1100085B
:10001000911200082B040008B91400080000000029
:10002000000000000000000000000000E1130008D4
:100030002F0400080000000099120008E3130008D4
:100040004F0200084F0200084F0200084F0200084C
:100050004F0200084F0200084F0200084F0200083C
:100060004F0200084F0200084F0200084F0200082C
:100070004F0200084F0200084F0200084F0200081C
:100080004F0200084F0200084F0200080000000065
:100090000000000000000000000000004F02000807
:1000A0004F0200084F0200084F0200084F020008EC
:1000B0004F0200084F0200084F0200084F020008DC
:1000C0004F0200084F0200084F0200084F020008CC
:1000D0004F0200084F0200084F0200080000000015
:1000E0004F0200084F0200084F0200080000000005
:1000F0000000000000000000000000004F020008A7
:10010000000000004F0200084F0200084F020008E4
:1001100000000000000000000000000000000000DF
:100120004F0200084F0200084F0200084F0200086B
:100130004F02000800000000000000000000000066
:100140000000000000000000000000004F02000856
:100150004F0200084F0200084F0200084F0200083B
:100160004F0200084F0200080000000000000000DD
:10017000000000000000000000000000000000007F
:10018000000000004F020008000000000000000016
:100190004F02000800F002F800F03CF80AA090E8D6
:1001A000000C82448344AAF10107DA4501D100F032
:1001B00031F8AFF2090EBAE80F0013F0010F18BFC3
:1001C000FB1A43F001031847BC130000DC130000C6
:1001D000103A24BF78C878C1FAD8520724BF30C873
:1001E00030C144BF04680C60704700000023002445
:1001F00000250026103A28BF78C1FBD8520728BF37
:1002000030C148BF0B6070471FB501F0A9F91FBD91
:1002100010B510BD00F0CFF81146FFF7F5FF01F063
:1002200069F900F0EDF803B4FFF7F2FF03BC00F04A
:10023000F5F800000948804709480047FEE7FEE757
:10024000FEE7FEE7FEE7FEE7FEE7FEE7FEE7FEE786
:1002500004480549054A064B70470000A5140008EC
:1002600095010008980100209807002098030020BD
:100270009803002053EA020C00F069802DE9F04B4E
:100280004FF00006002B1FBFB3FA83F503FA05F405
:1002900024FA05F65E4012BF1643B2FA82F502FA5E
:1002A00005F4C5F120051EBF22FA05FC44EA0C0442
:1002B000203556EA044C4FEA144418BF641C4FF032
:1002C00000084FF00009904271EB030C39D300296C
:1002D00019BFB1FA81F701FA07F6B0FA80F700FA10
:1002E00007F6C7F120071EBF20FA07FC46EA0C06F6
:1002F0002037B6FBF4FCA7EB0507103F07F01F0BF8
:10030000CBF120060CFA0BFB2CFA06F644BFB346E1
:100310000026202FA4BF5E464FF0000B5BEA060CC0
:1003200008BF4FF0010B19EB0B09ABFB027C48EB4C
:100330000608C01B06FB02CC0BFB03CC71EB0C01C7
:10034000C1E70B46024641464846BDE8F08B13B56F
:100350004FF000004FF00001AFF30080BDE81C40FB
:1003600070474FF0000200B5134694469646203978
:1003700022BFA0E80C50A0E80C50B1F12001BFF45E
:10038000F7AF090728BFA0E80C5048BF0CC05DF8C4
:1003900004EB890028BF40F8042B08BF704748BF12
:1003A00020F8022B11F0804F18BF00F8012B704786
:1003B000704770477047754600F02CF8AE46050050
:1003C0006946534620F00700854618B020B5FFF770
:1003D0003FFFBDE820404FF000064FF000074FF010
:1003E00000084FF0000B21F00701AC46ACE8C00953
:1003F000ACE8C009ACE8C009ACE8C0098D4670475C
:1004000010B50446AFF300802046BDE81040FFF76A
:100410000ABF00000048704734010020014918203D
:10042000ABBEFEE726000200704700BFFEE7704744
:1004300072B600BFFEE7000070B5044600F0FAF89F
:1004400006462546681C10B104480078054400BFE4
:1004500000F0F0F8801BA842FAD370BDD400002051
:10046000F8B502460B460025002400200021C7E015
:10047000012606FA01F51E6806EA0504AC4274D1AD
:100480001E7906F00306012E04D01E7906F003063D
:10049000022E13D190684F000326BE40B0434F0098
:1004A000DE68BE4030439060506801268E40B04305
:1004B0001E79C6F300168E40304350601E7906F058
:1004C0000306032E09D0D0684F000326BE40B04378
:1004D0004F009E68BE403043D0601E7906F0030690
:1004E000022E13D1CF0802F1200656F827004E073E
:1004F000F70E0F26BE40B0434F07FF0E1E69BE40E9
:100500003043CF0802F1200646F8270010684F005C
:100510000326BE40B0431E7906F003064F00BE40DE
:10052000304310605E6806F44036002E67D000BF8E
:1005300000260096344E366846F48046324F3E60C0
:100540003E46366806F48046009600BF00BF2F4E38
:100550008F0856F827008E07370F0F26BE40B0438E
:100560002B4EB24202D1002615E048E0294EB2429D
:1005700001D101260FE0284EB24201D102260AE045
:10058000264EB24201D1032605E0254EB24201D1EA
:10059000042600E007268F073F0FBE4030431B4E66
:1005A0008F0846F827001F4E3068A0435E6806F4A7
:1005B000801606B120431B4E3060361D3068A043C4
:1005C0005E6806F4001606B12043164E361D3060F4
:1005D000144E361F3068A0435E6806F4003606B13C
:1005E0002043104E361F3060361F3068A0435E68CF
:1005F00006F4803606B120430A4E083E3060491C9E
:100600001029FFF435AFF8BD4438024008380140E6
:10061000000002400004024000080240000C0240BA
:1006200000100240083C01400AB1816101E00B0466
:10063000836170470148006870470000CC000020CB
:100640000348006803490978084401490860704775
:10065000CC000020D400002010B50D48006840F404
:1006600000700B4908600846006840F4806008602C
:100670000846006840F480700860032000F092F89B
:100680000F2000F007F800F02BF8002010BD00004C
:10069000003C024070B504460E4800784FF47A7171
:1006A000B1FBF0F00C490968B1FBF0F5284600F009
:1006B00074FD08B1012070BD102C07D20022214624
:1006C000501E00F031F80548046001E00120F2E717
:1006D0000020F0E7D4000020D8000020D000002047
:1006E00008B500BF002000900E48006840F480402C
:1006F0000C4908600846006800F48040009000BF84
:1007000000BF00BF00200090081F006840F080502C
:10071000091F08600846006800F08050009000BF84
:1007200000BF08BD443802402DE9F05F80460D4609
:100730001646002700F0C2FE074639462A463346D1
:1007400001F00700C0F1070ABAF1040F02D94FF017
:10075000040A01E0C0F1070AD14600F1040ABAF127
:10076000070F02D24FF0000A01E0A0F1030AD446BD
:100770004FF0010A0AFA09FAAAF1010A0AEA020A82
:100780000AFA0CFA4FF0010B0BFA0CFBABF1010B60
:100790000BEA030B4AEA0B042146404600F096FEA2
:1007A000BDE8F09F00BF00F00702064B19684FF646
:1007B000FF031940044B0B4343EA0221014B19602C
:1007C00000BF70470CED00E00000FA0570B504466C
:1007D0000D460CB9012070BD5848006800F00700B4
:1007E000A84209D255490D700846006800F007007C
:1007F000A84201D00120EEE7207800F00200022894
:100800001DD1207800F00400042805D14C48006870
:1008100040F4E0504A490860207800F008000828B9
:1008200005D14748006840F46040454908604448A5
:10083000006820F0F000A168084341490860207872
:1008400000F00100A8B36068012807D13C480838CF
:100850000068C0F34040B8B90120BCE760680228D6
:1008600002D06068032807D1354808380068C0F313
:10087000406048B90120AEE7314808380068C0F34D
:10088000400008B90120A6E72D48006820F00300C9
:10089000616808432A490860FFF7CCFE064609E074
:1008A000FFF7C8FE801B41F28831884202D903203D
:1008B00091E707E02248006800F00C006168B0EBA7
:1008C000810FEDD11D48006800F00700A84209D94A
:1008D0001A490D700846006800F00700A84201D0D0
:1008E000012078E7207800F00400042807D114489C
:1008F000006820F4E050E16808431149086020785E
:1009000000F00800082808D10D48006820F4604075
:10091000216940EAC1000A49086000F019F8084955
:100920000968C1F30311074A515CC84006490860D1
:1009300006480068FFF7AEFE00204CE7003C02408E
:10094000083802406A150008D8000020D0000020B6
:100950002DE9F047002400250026A146254800681F
:1009600000F00C0020B1042805D008283AD105E099
:10097000DFF8849039E0DFF8849036E01D48001FEE
:10098000006800F03F041B48001F006800F480006E
:1009900078B11A481749091F0968C1F38811A0FBEB
:1009A00001700146224600233846FFF763FC0546E6
:1009B0000EE011480F49091F0968C1F38811A0FB17
:1009C00001700146224600233846FFF753FC0546D6
:1009D0000848001F0068C0F30140401C4600B5FBFA
:1009E000F6F902E0DFF8109000BF00BF4846BDE80E
:1009F000F0870000083802400024F40040787D01B0
:100A0000F8B504460CB90120F8BD207800F00100CB
:100A1000002874D0F948006800F00C0004280DD0BC
:100A2000F648006800F00C00082813D1F348001FB6
:100A3000006800F48000B0F5800F0BD1EF48083853
:100A40000068C0F34040002859D06068002856D1A3
:100A50000120D9E700BF6068B0F5803F08D1E748C2
:100A60000838006840F48030E449083908601EE026
:100A70006068B0F5A02F0DD1E0480838006840F458
:100A80008020DE49083908600846006840F480305C
:100A900008600CE0D9480838006820F48030D74955
:100AA000083908600846006820F48020086000BF0C
:100AB000606890B1FFF7BEFD054606E0FFF7BAFD9E
:100AC000401B642801D903209EE7CC480838006801
:100AD000C0F340400028F1D011E0FFF7ABFD054620
:100AE00006E0FFF7A7FD401B642801D903208BE730
:100AF000C24808380068C0F340400028F1D120788F
:100B000000F0020002285FD1BC48006800F00C0031
:100B100058B1BA48006800F00C0008281CD1B7484A
:100B2000001F006800F48000B0B9B44808380068BD
:100B3000C0F3400020B1E068012801D0012063E744
:100B4000AE480838006820F0F800216940EAC1008A
:100B5000AA490839086037E0E06800B30120A849D5
:100B60000860FFF767FD054606E0FFF763FD401BE1
:100B7000022801D9032047E7A04808380068C0F3DD
:100B800040000028F1D09D480838006820F0F800A7
:100B9000216940EAC10099490839086014E0002041
:100BA00097490860FFF746FD054606E0FFF742FD5E
:100BB000401B022801D9032026E790480838006826
:100BC000C0F340000028F1D1207800F00800082888
:100BD0002CD16069A8B101208A490860FFF72AFD7D
:100BE000054606E0FFF726FD401B022801D9032039
:100BF0000AE782486C300068C0F340000028F1D05A
:100C000014E000207F490860FFF714FD054606E068
:100C1000FFF710FD401B022801D90320F4E67748B6
:100C20006C300068C0F340000028F1D1207800F05B
:100C30000400042870D1002770483830006800F0A4
:100C4000805090B900BF002000906C483830006898
:100C500040F080506949383108600846006800F06B
:100C60008050009000BF00BF01276748006800F473
:100C70008070B0B96448006840F4807062490860D0
:100C8000FFF7D8FC054606E0FFF7D4FC401B02281E
:100C900001D90320B8E65C48006800F480700028A1
:100CA000F2D000BFA068012808D15448683000681D
:100CB00040F001005149683108601DE0A068052836
:100CC0000DD14E486830006840F004004B4968314F
:100CD00008600846006840F0010008600CE04748E2
:100CE0006830006820F00100444968310860084617
:100CF000006820F00400086000BFA068A8B1FFF7FA
:100D000099FC054609E0FFF795FC401B41F288314C
:100D1000884202D9032077E626E038486830006828
:100D2000C0F340000028EED013E0FFF783FC054637
:100D300008E0FFF77FFC401B41F28831884201D96F
:100D4000032061E62D4868300068C0F340000028A9
:100D5000EFD1012F07D129483830006820F08050AA
:100D600026493831086000BFA069002845D02348D3
:100D7000006800F00C0008285DD0A069022845D169
:100D800000201F490866FFF755FC054606E0FFF7FF
:100D900051FC401B022801D9032035E617480838CA
:100DA0000068C0F340600028F1D1D4E9070108438E
:100DB000616A40EA81110122A06AC2EB500041EA57
:100DC00000412C20005D41EA00600C49091F0860C9
:100DD00001200B490866FFF72DFC054606E0FFF7EA
:100DE00029FC401B022801D903200DE603480838DE
:100DF0000068C0F340600028F1D049E008380240A4
:100E000000004742800E4742007000400020214908
:100E10000866FFF70FFC054606E0FFF70BFC401BDA
:100E2000022801D90320EFE51B480068C0F34060A9
:100E30000028F2D12CE0A069012800D1E4E5164891
:100E4000001D0668A069012820D006F48001E06931
:100E500081421BD106F03F01206A814216D147F63C
:100E6000C0703040616AB0EB811F0FD106F4403191
:100E70000122A06AC2EB5000B1EB004F06D106F090
:100E800070612C20005DB1EB006F01D00120BBE54B
:100E90000020B9E5000047420038024010B5044682
:100EA0000CB9012010BD606A38B96068B0F5827F66
:100EB00000D105E00021E16102E0002121616161D2
:100EC0000021A16294F8510028B9002084F8500054
:100ED000204600F047F8022084F85100206800689E
:100EE00020F0400021680860A08800F48270218909
:100EF00001F404410843A18901F400610843217C05
:100F000001F002010843217D01F001010843218B1A
:100F100001F400710843217F01F0380108432021CA
:100F2000095D01F080010843218D01F4005108435F
:100F3000216808600421A06901EA104094F8241097
:100F400001F010010843216848602068C06920F45E
:100F500000602168C86100206065012084F85100AC
:100F600000209FE710B586B00446142101A8FFF7C2
:100F7000F8F91B49206888422FD100BF002000905B
:100F80001848006840F48050164908600846006818
:100F900000F48050009000BF00BF00BF0020009010
:100FA00010481438006840F001000E4914390860F8
:100FB0000846006800F00100009000BF00BFE0207C
:100FC000019002200290002003900320049005204D
:100FD000059001A90448FFF743FA06B010BD0000D0
:100FE0000030014044380240000002402DE9F84F33
:100FF0000446884616461D464FF0000A00BF94F886
:101000005000012802D10220BDE8F88F012084F8A9
:10101000500000BFFFF70EFB0746B14694F85100A1
:10102000012802D04FF0020AADE0B8F1000F00D065
:1010300016B94FF0010AA6E0032084F85100002001
:101040006065C4F83080A686E686A063A087E08746
:1010500060642064A068B0F5004F0BD12068006880
:1010600020F04000216808602068006840F480405B
:10107000216808602068006800F04000402805D022
:101080002068006840F0400021680860E068B0F522
:10109000006F2FD1606810B1B9F1010F09D1206B39
:1010A00000882168C860206B801C2063E08E401E91
:1010B000E0861BE02068806800F0020002280AD168
:1010C000206B00882168C860206B801C2063E08E44
:1010D000401EE0860AE0FFF7ADFAC01BA84201D32C
:1010E000681C00B915B94FF0030A4CE0E08E0028E7
:1010F000E0D12EE0606810B1B9F1010F09D1206B89
:10110000007821680873206B401C2063E08E401E2D
:10111000E0861BE02068806800F0020002280AD107
:10112000206B007821680873206B401C2063E08EE0
:10113000401EE0860AE0FFF77DFAC01BA84201D3FB
:10114000681C00B915B94FF0030A1CE0E08E0028B6
:10115000E0D13A462946204600F0A0F808B1202008
:101160006065A06850B900BF002000902068C0688A
:10117000009020688068009000BF00BF606D08B1DB
:101180004FF0010A00BF012084F8510000BF002089
:1011900084F8500000BF504636E770B50446254637
:1011A000681EB0F1807F01D301200FE0681E4FF070
:1011B000E02148610F214FF0FF3000F087F9002057
:1011C0004FF0E021886107200861002070BD00BF5A
:1011D000FEE7000000B587B0142102A8FFF7C1F8B0
:1011E00000BF002001901748006840F00100154939
:1011F00008600846006800F00100019000BF00BFD1
:1012000000BF002001900846006840F0020008601E
:101210000846006800F00200019000BF00BF0022F5
:1012200002210948FFF700FA0220029001200390F2
:1012300000200490059002A90348FFF711F907B0B8
:1012400000BD0000303802400004024010B50E48D6
:101250000E4908604FF48270486000210B4881609D
:10126000C160016141614FF4007181613821C16148
:1012700000210162416281620A21C162FFF70EFE14
:1012800008B1FFF7D5F810BD00300140DC000020A8
:1012900000BFFEE700BFFEE7704700007CB50446D4
:1012A0000D461646164800681821B0FBF1F01549A6
:1012B000B0FBF1F04FF47A71484301906068B0F5EB
:1012C000827F0DD12B46002280212046009600F01F
:1012D0001BF898B1606D40F02000606503207CBD74
:1012E00000BF019800B908E00198401E01902068F5
:1012F0008068C0F3C0100028F3D100BF0020EEE7E3
:10130000D800002040420F002DE9F84F04460D465A
:1013100090461E46DDF82890FFF78CF9A0EB0900F7
:10132000371AFFF787F982462C480068C0F3CB30A4
:101330007843009045E0701C002842D0FFF77AF90E
:10134000A0EB0A00B84200D2A7BB2068406820F09A
:10135000E000216848606068B0F5827F0DD1A06828
:10136000B0F5004F03D0A068B0F5806F05D12068BC
:10137000006820F0400021680860A06AB0F5005FB6
:101380000DD100BF2068006820F40050216808607B
:101390002068006840F400502168086000BF012008
:1013A00084F8510000BF002084F8500000BF0320E3
:1013B000BDE8F88FFFE7009800B900270098401EAD
:1013C0000090206880682840A84201D1012000E0F8
:1013D00000204045AFD10020EAE70000D8000020FF
:1013E000704710B5FFF72CF910BD000000B593B0A1
:1013F000302107A8FEF7B5FF142102A8FEF7B1FFC0
:1014000000BF002001902548006840F0805023492B
:1014100008600846006800F08050019000BF00BFDF
:1014200000BF002001901E48006820F4404040F4B6
:1014300000401B4908600846006800F440400190E5
:1014400000BF00BF0220079001200A9010200B90DF
:1014500002200D9000210E9108210F91542110912E
:10146000022111910421129107A8FFF7C9FA08B1CE
:10147000FEF7DEFF0F200290022003900020049070
:101480004FF48050059000200690022102A8FFF73B
:101490009DF908B1FEF7CCFF13B000BD4038024003
:1014A000007000400348006840F470000149086083
:1014B0007047000088ED00E000BFFEE702480068CA
:1014C000C0F30220704700000CED00E010B50028CA
:1014D00004DB0A07130E054A135406E00A07140E2C
:1014E000034A00F00F031B1FD45410BD00E400E0BA
:1014F00018ED00E0FFF7B0F8FFF778FFFFF76AFE9E
:10150000FFF7A4FE012202211148FFF78DF84FF4E6
:10151000FA60FEF791FF19E0002202210C48FFF764
:1015200083F84FF47A7314220A490B48FFF75EFDE3
:10153000012202210648FFF777F84FF4FA60FEF720
:101540007BFF06480068401C04490860E4E700008F
:101550000004024000000020DC000020C800002041
:101560004FF04070E1EE100A7047000000000000EC
:101570000000010203040607080900000000010240
:1015800003040000A415000800000020DC00000097
:10159000D001000880160008DC000020BC06000016
:1015A000EC010008686920686F7720617265207916
:1015B0006F75200000000000000000000000000027
:1015C000000000000000000000000000000000001B
:1015D000000000000000000000000000000000000B
:1015E00000000000000000000000000000000000FB
:1015F00000000000000000000000000000000000EB
:1016000000000000000000000000000000000000DA
:1016100000000000000000000000000000000000CA
:1016200000000000000000000000000000000000BA
:1016300000000000000000000000000000000000AA
:10164000000000000000000000000000000000009A
:10165000000000000000000000000000000000008A
:10166000000000000000000000000000000000007A
:101670000000000010000000010000000024F40041
:040000050800019559
:00000001FF
